8=FIXT.1.1|9=79|35=A|34=1|49=CLIENT1|52=20221130-20:51:40.469|56=ORDERMATCH|98=0|108=30|1137=7|10=104|8=FIXT.1.1|9=60|35=0|34=2|49=CLIENT1|52=20221130-20:52:10.483|56=ORDERMATCH|10=238|8=FIXT.1.1|9=126|35=D|34=3|49=CLIENT1|52=20221130-20:52:22.594|56=ORDERMATCH|1128=7|11=1|21=1|38=1000|40=1|54=1|55=1|59=0|60=20221130-20:51:53|10=234|8=FIXT.1.1|9=60|35=0|34=4|49=CLIENT1|52=20221130-20:52:52.506|56=ORDERMATCH|10=242|8=FIXT.1.1|9=60|35=0|34=5|49=CLIENT1|52=20221130-20:53:22.522|56=ORDERMATCH|10=239|8=FIXT.1.1|9=60|35=0|34=6|49=CLIENT1|52=20221130-20:53:52.539|56=ORDERMATCH|10=251|8=FIXT.1.1|9=60|35=0|34=7|49=CLIENT1|52=20221130-20:54:22.556|56=ORDERMATCH|10=249|8=FIXT.1.1|9=60|35=0|34=8|49=CLIENT1|52=20221130-20:54:52.569|56=ORDERMATCH|10=001|8=FIXT.1.1|9=60|35=0|34=9|49=CLIENT1|52=20221130-20:55:22.583|56=ORDERMATCH|10=252|8=FIXT.1.1|9=61|35=0|34=10|49=CLIENT1|52=20221130-20:55:52.599|56=ORDERMATCH|10=047|8=FIXT.1.1|9=61|35=0|34=11|49=CLIENT1|52=20221130-20:56:22.614|56=ORDERMATCH|10=034|8=FIXT.1.1|9=61|35=0|34=12|49=CLIENT1|52=20221130-20:56:52.628|56=ORDERMATCH|10=043|8=FIXT.1.1|9=61|35=0|34=13|49=CLIENT1|52=20221130-20:57:22.641|56=ORDERMATCH|10=037|8=FIXT.1.1|9=61|35=0|34=14|49=CLIENT1|52=20221130-20:57:52.014|56=ORDERMATCH|10=035|8=FIXT.1.1|9=61|35=0|34=15|49=CLIENT1|52=20221130-20:58:22.027|56=ORDERMATCH|10=038|8=FIXT.1.1|9=61|35=0|34=16|49=CLIENT1|52=20221130-20:58:52.044|56=ORDERMATCH|10=041|8=FIXT.1.1|9=61|35=0|34=17|49=CLIENT1|52=20221130-20:59:22.059|56=ORDERMATCH|10=046|8=FIXT.1.1|9=61|35=0|34=18|49=CLIENT1|52=20221130-20:59:52.075|56=ORDERMATCH|10=048|8=FIXT.1.1|9=61|35=0|34=19|49=CLIENT1|52=20221130-21:00:22.090|56=ORDERMATCH|10=030|8=FIXT.1.1|9=61|35=0|34=20|49=CLIENT1|52=20221130-21:00:52.106|56=ORDERMATCH|10=023|8=FIXT.1.1|9=61|35=0|34=21|49=CLIENT1|52=20221130-21:01:22.120|56=ORDERMATCH|10=018|8=FIXT.1.1|9=61|35=0|34=22|49=CLIENT1|52=20221130-21:01:52.149|56=ORDERMATCH|10=033|8=FIXT.1.1|9=61|35=0|34=23|49=CLIENT1|52=20221130-21:02:22.166|56=ORDERMATCH|10=031|8=FIXT.1.1|9=61|35=0|34=24|49=CLIENT1|52=20221130-21:02:52.183|56=ORDERMATCH|10=034|8=FIXT.1.1|9=61|35=0|34=25|49=CLIENT1|52=20221130-21:03:22.200|56=ORDERMATCH|10=023|8=FIXT.1.1|9=61|35=0|34=26|49=CLIENT1|52=20221130-21:03:52.217|56=ORDERMATCH|10=035|8=FIXT.1.1|9=61|35=0|34=27|49=CLIENT1|52=20221130-21:04:22.235|56=ORDERMATCH|10=034|8=FIXT.1.1|9=61|35=0|34=28|49=CLIENT1|52=20221130-21:04:52.253|56=ORDERMATCH|10=038|8=FIXT.1.1|9=61|35=0|34=29|49=CLIENT1|52=20221130-21:05:22.268|56=ORDERMATCH|10=043|8=FIXT.1.1|9=61|35=0|34=30|49=CLIENT1|52=20221130-21:05:52.287|56=ORDERMATCH|10=039|8=FIXT.1.1|9=61|35=0|34=31|49=CLIENT1|52=20221130-21:06:22.302|56=ORDERMATCH|10=026|8=FIXT.1.1|9=61|35=0|34=32|49=CLIENT1|52=20221130-21:06:52.332|56=ORDERMATCH|10=033|8=FIXT.1.1|9=61|35=0|34=33|49=CLIENT1|52=20221130-21:07:22.349|56=ORDERMATCH|10=040|8=FIXT.1.1|9=61|35=0|34=34|49=CLIENT1|52=20221130-21:07:52.367|56=ORDERMATCH|10=044|8=FIXT.1.1|9=61|35=0|34=35|49=CLIENT1|52=20221130-21:08:22.385|56=ORDERMATCH|10=043|8=FIXT.1.1|9=61|35=0|34=36|49=CLIENT1|52=20221130-21:08:52.403|56=ORDERMATCH|10=038|8=FIXT.1.1|9=61|35=0|34=37|49=CLIENT1|52=20221130-21:09:22.419|56=ORDERMATCH|10=044|8=FIXT.1.1|9=61|35=0|34=38|49=CLIENT1|52=20221130-21:09:52.024|56=ORDERMATCH|10=040|8=FIXT.1.1|9=61|35=0|34=39|49=CLIENT1|52=20221130-21:10:22.038|56=ORDERMATCH|10=035|8=FIXT.1.1|9=61|35=0|34=40|49=CLIENT1|52=20221130-21:10:52.054|56=ORDERMATCH|10=028|8=FIXT.1.1|9=61|35=0|34=41|49=CLIENT1|52=20221130-21:11:22.071|56=ORDERMATCH|10=026|8=FIXT.1.1|9=61|35=0|34=42|49=CLIENT1|52=20221130-21:11:52.095|56=ORDERMATCH|10=036|8=FIXT.1.1|9=61|35=0|34=43|49=CLIENT1|52=20221130-21:12:22.107|56=ORDERMATCH|10=029|8=FIXT.1.1|9=61|35=0|34=44|49=CLIENT1|52=20221130-21:12:52.120|56=ORDERMATCH|10=028|8=FIXT.1.1|9=61|35=0|34=45|49=CLIENT1|52=20221130-21:13:22.138|56=ORDERMATCH|10=036|8=FIXT.1.1|9=61|35=0|34=46|49=CLIENT1|52=20221130-21:13:52.150|56=ORDERMATCH|10=034|8=FIXT.1.1|9=61|35=0|34=47|49=CLIENT1|52=20221130-21:14:22.163|56=ORDERMATCH|10=037|8=FIXT.1.1|9=61|35=0|34=48|49=CLIENT1|52=20221130-21:14:52.177|56=ORDERMATCH|10=046|8=FIXT.1.1|9=61|35=0|34=49|49=CLIENT1|52=20221130-21:15:22.190|56=ORDERMATCH|10=040|8=FIXT.1.1|9=61|35=0|34=50|49=CLIENT1|52=20221130-21:15:52.207|56=ORDERMATCH|10=034|8=FIXT.1.1|9=61|35=0|34=51|49=CLIENT1|52=20221130-21:16:22.222|56=ORDERMATCH|10=030|8=FIXT.1.1|9=61|35=0|34=52|49=CLIENT1|52=20221130-21:16:52.234|56=ORDERMATCH|10=037|8=FIXT.1.1|9=61|35=0|34=53|49=CLIENT1|52=20221130-21:17:22.250|56=ORDERMATCH|10=034|8=FIXT.1.1|9=61|35=0|34=54|49=CLIENT1|52=20221130-21:17:52.263|56=ORDERMATCH|10=042|8=FIXT.1.1|9=61|35=0|34=55|49=CLIENT1|52=20221130-21:18:22.275|56=ORDERMATCH|10=044|8=FIXT.1.1|9=61|35=0|34=56|49=CLIENT1|52=20221130-21:18:52.288|56=ORDERMATCH|10=052|8=FIXT.1.1|9=61|35=0|34=57|49=CLIENT1|52=20221130-21:19:22.301|56=ORDERMATCH|10=037|8=FIXT.1.1|9=61|35=0|34=58|49=CLIENT1|52=20221130-21:19:52.318|56=ORDERMATCH|10=049|8=FIXT.1.1|9=61|35=0|34=59|49=CLIENT1|52=20221130-21:20:22.331|56=ORDERMATCH|10=034|8=FIXT.1.1|9=61|35=0|34=60|49=CLIENT1|52=20221130-21:20:52.347|56=ORDERMATCH|10=036|8=FIXT.1.1|9=61|35=0|34=61|49=CLIENT1|52=20221130-21:21:22.363|56=ORDERMATCH|10=033|8=FIXT.1.1|9=61|35=0|34=62|49=CLIENT1|52=20221130-21:21:52.018|56=ORDERMATCH|10=034|8=FIXT.1.1|9=61|35=0|34=63|49=CLIENT1|52=20221130-21:22:22.037|56=ORDERMATCH|10=034|8=FIXT.1.1|9=61|35=0|34=64|49=CLIENT1|52=20221130-21:22:52.057|56=ORDERMATCH|10=040|8=FIXT.1.1|9=61|35=0|34=65|49=CLIENT1|52=20221130-21:23:22.072|56=ORDERMATCH|10=036|8=FIXT.1.1|9=61|35=0|34=66|49=CLIENT1|52=20221130-21:23:52.105|56=ORDERMATCH|10=037|8=FIXT.1.1|9=61|35=0|34=67|49=CLIENT1|52=20221130-21:24:22.123|56=ORDERMATCH|10=036|8=FIXT.1.1|9=61|35=0|34=68|49=CLIENT1|52=20221130-21:24:52.179|56=ORDERMATCH|10=051|8=FIXT.1.1|9=61|35=0|34=69|49=CLIENT1|52=20221130-21:25:22.196|56=ORDERMATCH|10=049|8=FIXT.1.1|9=61|35=0|34=70|49=CLIENT1|52=20221130-21:25:52.214|56=ORDERMATCH|10=035|8=FIXT.1.1|9=61|35=0|34=71|49=CLIENT1|52=20221130-21:26:22.233|56=ORDERMATCH|10=035|8=FIXT.1.1|9=61|35=0|34=72|49=CLIENT1|52=20221130-21:26:52.249|56=ORDERMATCH|10=046|8=FIXT.1.1|9=61|35=0|34=73|49=CLIENT1|52=20221130-21:27:22.264|56=ORDERMATCH|10=042|8=FIXT.1.1|9=61|35=0|34=74|49=CLIENT1|52=20221130-21:27:52.286|56=ORDERMATCH|10=050|8=FIXT.1.1|9=61|35=0|34=75|49=CLIENT1|52=20221130-21:28:22.302|56=ORDERMATCH|10=038|8=FIXT.1.1|9=61|35=0|34=76|49=CLIENT1|52=20221130-21:28:52.317|56=ORDERMATCH|10=048|8=FIXT.1.1|9=61|35=0|34=77|49=CLIENT1|52=20221130-21:29:22.333|56=ORDERMATCH|10=045|8=FIXT.1.1|9=61|35=0|34=78|49=CLIENT1|52=20221130-21:29:52.352|56=ORDERMATCH|10=050|8=FIXT.1.1|9=61|35=0|34=79|49=CLIENT1|52=20221130-21:30:22.372|56=ORDERMATCH|10=042|8=FIXT.1.1|9=61|35=0|34=80|49=CLIENT1|52=20221130-21:30:52.411|56=ORDERMATCH|10=031|8=FIXT.1.1|9=61|35=0|34=81|49=CLIENT1|52=20221130-21:31:22.428|56=ORDERMATCH|10=038|8=FIXT.1.1|9=61|35=0|34=82|49=CLIENT1|52=20221130-21:31:52.446|56=ORDERMATCH|10=042|8=FIXT.1.1|9=61|35=0|34=83|49=CLIENT1|52=20221130-21:32:22.464|56=ORDERMATCH|10=041|8=FIXT.1.1|9=61|35=0|34=84|49=CLIENT1|52=20221130-21:32:52.478|56=ORDERMATCH|10=050|8=FIXT.1.1|9=61|35=0|34=85|49=CLIENT1|52=20221130-21:33:22.496|56=ORDERMATCH|10=049|8=FIXT.1.1|9=61|35=0|34=86|49=CLIENT1|52=20221130-21:33:52.558|56=ORDERMATCH|10=052|8=FIXT.1.1|9=61|35=0|34=87|49=CLIENT1|52=20221130-21:34:22.585|56=ORDERMATCH|10=051|8=FIXT.1.1|9=61|35=0|34=88|49=CLIENT1|52=20221130-21:34:52.603|56=ORDERMATCH|10=046|8=FIXT.1.1|9=61|35=0|34=89|49=CLIENT1|52=20221130-21:35:22.620|56=ORDERMATCH|10=044|8=FIXT.1.1|9=61|35=0|34=90|49=CLIENT1|52=20221130-21:35:52.634|56=ORDERMATCH|10=044|8=FIXT.1.1|9=61|35=0|34=91|49=CLIENT1|52=20221130-21:36:22.650|56=ORDERMATCH|10=041|8=FIXT.1.1|9=61|35=0|34=92|49=CLIENT1|52=20221130-21:36:52.681|56=ORDERMATCH|10=049|8=FIXT.1.1|9=61|35=0|34=93|49=CLIENT1|52=20221130-21:37:22.700|56=ORDERMATCH|10=040|8=FIXT.1.1|9=61|35=0|34=94|49=CLIENT1|52=20221130-21:37:52.717|56=ORDERMATCH|10=052|8=FIXT.1.1|9=61|35=0|34=95|49=CLIENT1|52=20221130-21:38:22.737|56=ORDERMATCH|10=053|8=FIXT.1.1|9=61|35=0|34=96|49=CLIENT1|52=20221130-21:38:52.755|56=ORDERMATCH|10=057|8=FIXT.1.1|9=61|35=0|34=97|49=CLIENT1|52=20221130-21:39:22.773|56=ORDERMATCH|10=056|8=FIXT.1.1|9=61|35=0|34=98|49=CLIENT1|52=20221130-21:39:52.000|56=ORDERMATCH|10=043|8=FIXT.1.1|9=61|35=0|34=99|49=CLIENT1|52=20221130-21:40:22.015|56=ORDERMATCH|10=039|8=FIXT.1.1|9=62|35=0|34=100|49=CLIENT1|52=20221130-21:40:52.031|56=ORDERMATCH|10=072|8=FIXT.1.1|9=62|35=0|34=101|49=CLIENT1|52=20221130-21:41:22.045|56=ORDERMATCH|10=076|8=FIXT.1.1|9=62|35=0|34=102|49=CLIENT1|52=20221130-21:41:52.063|56=ORDERMATCH|10=080|8=FIXT.1.1|9=62|35=0|34=103|49=CLIENT1|52=20221130-21:42:22.081|56=ORDERMATCH|10=079|8=FIXT.1.1|9=62|35=0|34=104|49=CLIENT1|52=20221130-21:42:52.097|56=ORDERMATCH|10=090|8=FIXT.1.1|9=62|35=0|34=105|49=CLIENT1|52=20221130-21:43:22.115|56=ORDERMATCH|10=080|8=FIXT.1.1|9=62|35=0|34=106|49=CLIENT1|52=20221130-21:43:52.130|56=ORDERMATCH|10=081|8=FIXT.1.1|9=62|35=0|34=107|49=CLIENT1|52=20221130-21:44:22.146|56=ORDERMATCH|10=087|8=FIXT.1.1|9=62|35=0|34=108|49=CLIENT1|52=20221130-21:44:52.162|56=ORDERMATCH|10=089|8=FIXT.1.1|9=62|35=0|34=109|49=CLIENT1|52=20221130-21:45:22.012|56=ORDERMATCH|10=082|8=FIXT.1.1|9=62|35=0|34=110|49=CLIENT1|52=20221130-21:45:52.041|56=ORDERMATCH|10=079|8=FIXT.1.1|9=62|35=0|34=111|49=CLIENT1|52=20221130-21:46:22.059|56=ORDERMATCH|10=087|8=FIXT.1.1|9=62|35=0|34=112|49=CLIENT1|52=20221130-21:46:52.078|56=ORDERMATCH|10=092|8=FIXT.1.1|9=62|35=0|34=113|49=CLIENT1|52=20221130-21:47:22.095|56=ORDERMATCH|10=090|8=FIXT.1.1|9=62|35=0|34=114|49=CLIENT1|52=20221130-21:47:52.113|56=ORDERMATCH|10=085|8=FIXT.1.1|9=62|35=0|34=115|49=CLIENT1|52=20221130-21:48:22.131|56=ORDERMATCH|10=084|8=FIXT.1.1|9=62|35=0|34=116|49=CLIENT1|52=20221130-21:48:52.162|56=ORDERMATCH|10=092|8=FIXT.1.1|9=62|35=0|34=117|49=CLIENT1|52=20221130-21:49:22.175|56=ORDERMATCH|10=095|8=FIXT.1.1|9=62|35=0|34=118|49=CLIENT1|52=20221130-21:49:52.194|56=ORDERMATCH|10=100|8=FIXT.1.1|9=62|35=0|34=119|49=CLIENT1|52=20221130-21:50:22.216|56=ORDERMATCH|10=085|8=FIXT.1.1|9=62|35=0|34=120|49=CLIENT1|52=20221130-21:50:52.234|56=ORDERMATCH|10=080|8=FIXT.1.1|9=62|35=0|34=121|49=CLIENT1|52=20221130-21:51:22.255|56=ORDERMATCH|10=082|8=FIXT.1.1|9=62|35=0|34=122|49=CLIENT1|52=20221130-21:51:52.280|56=ORDERMATCH|10=084|8=FIXT.1.1|9=62|35=0|34=123|49=CLIENT1|52=20221130-21:52:22.297|56=ORDERMATCH|10=091|8=FIXT.1.1|9=62|35=0|34=124|49=CLIENT1|52=20221130-21:52:52.312|56=ORDERMATCH|10=083|8=FIXT.1.1|9=62|35=0|34=125|49=CLIENT1|52=20221130-21:53:22.329|56=ORDERMATCH|10=090|8=FIXT.1.1|9=62|35=0|34=126|49=CLIENT1|52=20221130-21:53:52.346|56=ORDERMATCH|10=093|8=FIXT.1.1|9=62|35=0|34=127|49=CLIENT1|52=20221130-21:54:22.362|56=ORDERMATCH|10=090|8=FIXT.1.1|9=62|35=0|34=128|49=CLIENT1|52=20221130-21:54:52.381|56=ORDERMATCH|10=095|8=FIXT.1.1|9=62|35=0|34=129|49=CLIENT1|52=20221130-21:55:22.396|56=ORDERMATCH|10=100|8=FIXT.1.1|9=62|35=0|34=130|49=CLIENT1|52=20221130-21:55:52.412|56=ORDERMATCH|10=084|8=FIXT.1.1|9=62|35=0|34=131|49=CLIENT1|52=20221130-21:56:22.428|56=ORDERMATCH|10=090|8=FIXT.1.1|9=62|35=0|34=132|49=CLIENT1|52=20221130-21:56:52.445|56=ORDERMATCH|10=093|8=FIXT.1.1|9=62|35=0|34=133|49=CLIENT1|52=20221130-21:57:22.460|56=ORDERMATCH|10=089|8=FIXT.1.1|9=62|35=0|34=134|49=CLIENT1|52=20221130-21:57:52.481|56=ORDERMATCH|10=096|8=FIXT.1.1|9=62|35=0|34=135|49=CLIENT1|52=20221130-21:58:22.497|56=ORDERMATCH|10=102|8=FIXT.1.1|9=62|35=0|34=136|49=CLIENT1|52=20221130-21:58:52.512|56=ORDERMATCH|10=094|8=FIXT.1.1|9=62|35=0|34=137|49=CLIENT1|52=20221130-21:59:22.662|56=ORDERMATCH|10=099|8=FIXT.1.1|9=62|35=0|34=138|49=CLIENT1|52=20221130-21:59:52.675|56=ORDERMATCH|10=107|8=FIXT.1.1|9=62|35=0|34=139|49=CLIENT1|52=20221130-22:00:22.707|56=ORDERMATCH|10=088|8=FIXT.1.1|9=62|35=0|34=140|49=CLIENT1|52=20221130-22:00:52.723|56=ORDERMATCH|10=081|8=FIXT.1.1|9=62|35=0|34=141|49=CLIENT1|52=20221130-22:01:22.736|56=ORDERMATCH|10=084|8=FIXT.1.1|9=62|35=0|34=142|49=CLIENT1|52=20221130-22:01:52.749|56=ORDERMATCH|10=092|8=FIXT.1.1|9=62|35=0|34=143|49=CLIENT1|52=20221130-22:02:22.763|56=ORDERMATCH|10=087|8=FIXT.1.1|9=62|35=0|34=144|49=CLIENT1|52=20221130-22:02:52.780|56=ORDERMATCH|10=090|8=FIXT.1.1|9=62|35=0|34=145|49=CLIENT1|52=20221130-22:03:22.795|56=ORDERMATCH|10=095|8=FIXT.1.1|9=62|35=0|34=146|49=CLIENT1|52=20221130-22:03:52.815|56=ORDERMATCH|10=092|8=FIXT.1.1|9=62|35=0|34=147|49=CLIENT1|52=20221130-22:04:22.835|56=ORDERMATCH|10=093|8=FIXT.1.1|9=62|35=0|34=148|49=CLIENT1|52=20221130-22:04:52.849|56=ORDERMATCH|10=102|8=FIXT.1.1|9=62|35=0|34=149|49=CLIENT1|52=20221130-22:05:22.864|56=ORDERMATCH|10=098|8=FIXT.1.1|9=62|35=0|34=150|49=CLIENT1|52=20221130-22:05:52.880|56=ORDERMATCH|10=091|8=FIXT.1.1|9=62|35=0|34=151|49=CLIENT1|52=20221130-22:06:22.895|56=ORDERMATCH|10=096|8=FIXT.1.1|9=62|35=0|34=152|49=CLIENT1|52=20221130-22:06:52.912|56=ORDERMATCH|10=090|8=FIXT.1.1|9=62|35=0|34=153|49=CLIENT1|52=20221130-22:07:22.927|56=ORDERMATCH|10=095|8=FIXT.1.1|9=62|35=0|34=154|49=CLIENT1|52=20221130-22:07:52.941|56=ORDERMATCH|10=095|8=FIXT.1.1|9=62|35=0|34=155|49=CLIENT1|52=20221130-22:08:22.957|56=ORDERMATCH|10=101|8=FIXT.1.1|9=62|35=0|34=156|49=CLIENT1|52=20221130-22:08:52.976|56=ORDERMATCH|10=106|8=FIXT.1.1|9=62|35=0|34=157|49=CLIENT1|52=20221130-22:09:22.011|56=ORDERMATCH|10=085|8=FIXT.1.1|9=62|35=0|34=158|49=CLIENT1|52=20221130-22:09:52.008|56=ORDERMATCH|10=095|8=FIXT.1.1|9=62|35=0|34=159|49=CLIENT1|52=20221130-22:10:22.029|56=ORDERMATCH|10=088|8=FIXT.1.1|9=62|35=0|34=160|49=CLIENT1|52=20221130-22:10:52.045|56=ORDERMATCH|10=081|8=FIXT.1.1|9=62|35=0|34=161|49=CLIENT1|52=20221130-22:11:22.096|56=ORDERMATCH|10=086|8=FIXT.1.1|9=62|35=0|34=162|49=CLIENT1|52=20221130-22:11:52.187|56=ORDERMATCH|10=091|8=FIXT.1.1|9=62|35=0|34=163|49=CLIENT1|52=20221130-22:12:22.201|56=ORDERMATCH|10=077|8=FIXT.1.1|9=62|35=0|34=164|49=CLIENT1|52=20221130-22:12:52.213|56=ORDERMATCH|10=084|8=FIXT.1.1|9=62|35=0|34=165|49=CLIENT1|52=20221130-22:13:22.225|56=ORDERMATCH|10=086|8=FIXT.1.1|9=62|35=0|34=166|49=CLIENT1|52=20221130-22:13:52.238|56=ORDERMATCH|10=094|8=FIXT.1.1|9=62|35=0|34=167|49=CLIENT1|52=20221130-22:14:22.253|56=ORDERMATCH|10=090|8=FIXT.1.1|9=62|35=0|34=168|49=CLIENT1|52=20221130-22:14:52.268|56=ORDERMATCH|10=100|8=FIXT.1.1|9=62|35=0|34=169|49=CLIENT1|52=20221130-22:15:22.281|56=ORDERMATCH|10=094|8=FIXT.1.1|9=62|35=0|34=170|49=CLIENT1|52=20221130-22:15:52.296|56=ORDERMATCH|10=095|8=FIXT.1.1|9=62|35=0|34=171|49=CLIENT1|52=20221130-22:16:22.310|56=ORDERMATCH|10=081|8=FIXT.1.1|9=62|35=0|34=172|49=CLIENT1|52=20221130-22:16:52.325|56=ORDERMATCH|10=091|8=FIXT.1.1|9=62|35=0|34=173|49=CLIENT1|52=20221130-22:17:22.342|56=ORDERMATCH|10=089|8=FIXT.1.1|9=62|35=0|34=174|49=CLIENT1|52=20221130-22:17:52.362|56=ORDERMATCH|10=095|8=FIXT.1.1|9=62|35=0|34=175|49=CLIENT1|52=20221130-22:18:22.379|56=ORDERMATCH|10=102|8=FIXT.1.1|9=62|35=0|34=176|49=CLIENT1|52=20221130-22:18:52.393|56=ORDERMATCH|10=102|8=FIXT.1.1|9=62|35=0|34=177|49=CLIENT1|52=20221130-22:19:22.404|56=ORDERMATCH|10=094|8=FIXT.1.1|9=62|35=0|34=178|49=CLIENT1|52=20221130-22:19:52.419|56=ORDERMATCH|10=104|8=FIXT.1.1|9=62|35=0|34=179|49=CLIENT1|52=20221130-22:20:22.431|56=ORDERMATCH|10=088|8=FIXT.1.1|9=62|35=0|34=180|49=CLIENT1|52=20221130-22:20:52.443|56=ORDERMATCH|10=086|8=FIXT.1.1|9=62|35=0|34=181|49=CLIENT1|52=20221130-22:21:22.456|56=ORDERMATCH|10=089|8=FIXT.1.1|9=62|35=0|34=182|49=CLIENT1|52=20221130-22:21:52.478|56=ORDERMATCH|10=097|8=FIXT.1.1|9=62|35=0|34=183|49=CLIENT1|52=20221130-22:22:22.490|56=ORDERMATCH|10=090|8=FIXT.1.1|9=62|35=0|34=184|49=CLIENT1|52=20221130-22:22:52.503|56=ORDERMATCH|10=089|8=FIXT.1.1|9=62|35=0|34=185|49=CLIENT1|52=20221130-22:23:22.517|56=ORDERMATCH|10=093|8=FIXT.1.1|9=62|35=0|34=186|49=CLIENT1|52=20221130-22:23:52.529|56=ORDERMATCH|10=100|8=FIXT.1.1|9=62|35=0|34=187|49=CLIENT1|52=20221130-22:24:22.544|56=ORDERMATCH|10=096|8=FIXT.1.1|9=62|35=0|34=188|49=CLIENT1|52=20221130-22:24:52.600|56=ORDERMATCH|10=093|8=FIXT.1.1|9=62|35=0|34=189|49=CLIENT1|52=20221130-22:25:22.613|56=ORDERMATCH|10=096|8=FIXT.1.1|9=62|35=0|34=190|49=CLIENT1|52=20221130-22:25:52.627|56=ORDERMATCH|10=096|8=FIXT.1.1|9=62|35=0|34=191|49=CLIENT1|52=20221130-22:26:22.644|56=ORDERMATCH|10=094|8=FIXT.1.1|9=62|35=0|34=192|49=CLIENT1|52=20221130-22:26:52.658|56=ORDERMATCH|10=103|8=FIXT.1.1|9=62|35=0|34=193|49=CLIENT1|52=20221130-22:27:22.677|56=ORDERMATCH|10=103|8=FIXT.1.1|9=62|35=0|34=194|49=CLIENT1|52=20221130-22:27:52.713|56=ORDERMATCH|10=098|8=FIXT.1.1|9=62|35=0|34=195|49=CLIENT1|52=20221130-22:28:22.727|56=ORDERMATCH|10=102|8=FIXT.1.1|9=62|35=0|34=196|49=CLIENT1|52=20221130-22:28:52.741|56=ORDERMATCH|10=102|8=FIXT.1.1|9=62|35=0|34=197|49=CLIENT1|52=20221130-22:29:22.754|56=ORDERMATCH|10=105|8=FIXT.1.1|9=62|35=0|34=198|49=CLIENT1|52=20221130-22:29:52.833|56=ORDERMATCH|10=107|8=FIXT.1.1|9=62|35=0|34=199|49=CLIENT1|52=20221130-22:30:22.848|56=ORDERMATCH|10=103|8=FIXT.1.1|9=62|35=0|34=200|49=CLIENT1|52=20221130-22:30:52.866|56=ORDERMATCH|10=089|8=FIXT.1.1|9=62|35=0|34=201|49=CLIENT1|52=20221130-22:31:22.880|56=ORDERMATCH|10=084|8=FIXT.1.1|9=62|35=0|34=202|49=CLIENT1|52=20221130-22:31:52.895|56=ORDERMATCH|10=094|8=FIXT.1.1|9=62|35=0|34=203|49=CLIENT1|52=20221130-22:32:22.912|56=ORDERMATCH|10=083|8=FIXT.1.1|9=62|35=0|34=204|49=CLIENT1|52=20221130-22:32:52.926|56=ORDERMATCH|10=092|8=FIXT.1.1|9=62|35=0|34=205|49=CLIENT1|52=20221130-22:33:22.940|56=ORDERMATCH|10=087|8=FIXT.1.1|9=62|35=0|34=206|49=CLIENT1|52=20221130-22:33:52.988|56=ORDERMATCH|10=103|8=FIXT.1.1|9=62|35=0|34=207|49=CLIENT1|52=20221130-22:34:22.003|56=ORDERMATCH|10=080|8=FIXT.1.1|9=62|35=0|34=208|49=CLIENT1|52=20221130-22:34:52.020|56=ORDERMATCH|10=083|8=FIXT.1.1|9=62|35=0|34=209|49=CLIENT1|52=20221130-22:35:22.036|56=ORDERMATCH|10=089|8=FIXT.1.1|9=62|35=0|34=210|49=CLIENT1|52=20221130-22:35:52.050|56=ORDERMATCH|10=080|8=FIXT.1.1|9=62|35=0|34=211|49=CLIENT1|52=20221130-22:36:22.063|56=ORDERMATCH|10=083|8=FIXT.1.1|9=62|35=0|34=212|49=CLIENT1|52=20221130-22:36:52.081|56=ORDERMATCH|10=087|8=FIXT.1.1|9=62|35=0|34=213|49=CLIENT1|52=20221130-22:37:22.095|56=ORDERMATCH|10=091|8=FIXT.1.1|9=62|35=0|34=214|49=CLIENT1|52=20221130-22:37:52.109|56=ORDERMATCH|10=091|8=FIXT.1.1|9=62|35=0|34=215|49=CLIENT1|52=20221130-22:38:22.122|56=ORDERMATCH|10=085|8=FIXT.1.1|9=62|35=0|34=216|49=CLIENT1|52=20221130-22:38:52.135|56=ORDERMATCH|10=093|8=FIXT.1.1|9=62|35=0|34=217|49=CLIENT1|52=20221130-22:39:22.148|56=ORDERMATCH|10=096|8=FIXT.1.1|9=62|35=0|34=218|49=CLIENT1|52=20221130-22:39:52.184|56=ORDERMATCH|10=100|8=FIXT.1.1|9=62|35=0|34=219|49=CLIENT1|52=20221130-22:40:22.198|56=ORDERMATCH|10=095|8=FIXT.1.1|9=62|35=0|34=220|49=CLIENT1|52=20221130-22:40:52.211|56=ORDERMATCH|10=076|8=FIXT.1.1|9=62|35=0|34=221|49=CLIENT1|52=20221130-22:41:22.224|56=ORDERMATCH|10=079|8=FIXT.1.1|9=62|35=0|34=222|49=CLIENT1|52=20221130-22:41:52.237|56=ORDERMATCH|10=087|8=FIXT.1.1|9=62|35=0|34=223|49=CLIENT1|52=20221130-22:42:22.251|56=ORDERMATCH|10=082|8=FIXT.1.1|9=62|35=0|34=224|49=CLIENT1|52=20221130-22:42:52.337|56=ORDERMATCH|10=091|8=FIXT.1.1|9=62|35=0|34=225|49=CLIENT1|52=20221130-22:43:22.352|56=ORDERMATCH|10=087|8=FIXT.1.1|9=62|35=0|34=226|49=CLIENT1|52=20221130-22:43:52.366|56=ORDERMATCH|10=096|8=FIXT.1.1|9=62|35=0|34=227|49=CLIENT1|52=20221130-22:44:22.381|56=ORDERMATCH|10=092|8=FIXT.1.1|9=62|35=0|34=228|49=CLIENT1|52=20221130-22:44:52.398|56=ORDERMATCH|10=104|8=FIXT.1.1|9=62|35=0|34=229|49=CLIENT1|52=20221130-22:45:22.414|56=ORDERMATCH|10=092|8=FIXT.1.1|9=62|35=0|34=230|49=CLIENT1|52=20221130-22:45:52.452|56=ORDERMATCH|10=089|8=FIXT.1.1|9=62|35=0|34=231|49=CLIENT1|52=20221130-22:46:22.464|56=ORDERMATCH|10=091|8=FIXT.1.1|9=62|35=0|34=232|49=CLIENT1|52=20221130-22:46:52.510|56=ORDERMATCH|10=087|8=FIXT.1.1|9=62|35=0|34=233|49=CLIENT1|52=20221130-22:47:22.530|56=ORDERMATCH|10=088|8=FIXT.1.1|9=62|35=0|34=234|49=CLIENT1|52=20221130-22:47:52.545|56=ORDERMATCH|10=098|8=FIXT.1.1|9=62|35=0|34=235|49=CLIENT1|52=20221130-22:48:22.560|56=ORDERMATCH|10=094|8=FIXT.1.1|9=62|35=0|34=236|49=CLIENT1|52=20221130-22:48:52.571|56=ORDERMATCH|10=100|8=FIXT.1.1|9=62|35=0|34=237|49=CLIENT1|52=20221130-22:49:22.584|56=ORDERMATCH|10=103|8=FIXT.1.1|9=62|35=0|34=238|49=CLIENT1|52=20221130-22:49:52.601|56=ORDERMATCH|10=097|8=FIXT.1.1|9=62|35=0|34=239|49=CLIENT1|52=20221130-22:50:22.613|56=ORDERMATCH|10=090|8=FIXT.1.1|9=62|35=0|34=240|49=CLIENT1|52=20221130-22:50:52.624|56=ORDERMATCH|10=087|8=FIXT.1.1|9=62|35=0|34=241|49=CLIENT1|52=20221130-22:51:22.634|56=ORDERMATCH|10=087|8=FIXT.1.1|9=62|35=0|34=242|49=CLIENT1|52=20221130-22:51:52.700|56=ORDERMATCH|10=085|8=FIXT.1.1|9=62|35=0|34=243|49=CLIENT1|52=20221130-22:52:22.712|56=ORDERMATCH|10=087|8=FIXT.1.1|9=62|35=0|34=244|49=CLIENT1|52=20221130-22:52:52.721|56=ORDERMATCH|10=091|8=FIXT.1.1|9=62|35=0|34=245|49=CLIENT1|52=20221130-22:53:22.729|56=ORDERMATCH|10=098|8=FIXT.1.1|9=62|35=0|34=246|49=CLIENT1|52=20221130-22:53:52.738|56=ORDERMATCH|10=102|8=FIXT.1.1|9=62|35=0|34=247|49=CLIENT1|52=20221130-22:54:22.749|56=ORDERMATCH|10=103|8=FIXT.1.1|9=62|35=0|34=248|49=CLIENT1|52=20221130-22:54:52.763|56=ORDERMATCH|10=103|8=FIXT.1.1|9=62|35=0|34=249|49=CLIENT1|52=20221130-22:55:22.797|56=ORDERMATCH|10=109|8=FIXT.1.1|9=62|35=0|34=250|49=CLIENT1|52=20221130-22:55:52.819|56=ORDERMATCH|10=099|8=FIXT.1.1|9=62|35=0|34=251|49=CLIENT1|52=20221130-22:56:22.867|56=ORDERMATCH|10=101|8=FIXT.1.1|9=62|35=0|34=252|49=CLIENT1|52=20221130-22:56:52.891|56=ORDERMATCH|10=102|8=FIXT.1.1|9=62|35=0|34=253|49=CLIENT1|52=20221130-22:57:22.917|56=ORDERMATCH|10=100|8=FIXT.1.1|9=62|35=0|34=254|49=CLIENT1|52=20221130-22:57:52.006|56=ORDERMATCH|10=093|8=FIXT.1.1|9=62|35=0|34=255|49=CLIENT1|52=20221130-22:58:22.058|56=ORDERMATCH|10=099|8=FIXT.1.1|9=62|35=0|34=256|49=CLIENT1|52=20221130-22:58:52.084|56=ORDERMATCH|10=102|8=FIXT.1.1|9=62|35=0|34=257|49=CLIENT1|52=20221130-22:59:22.015|56=ORDERMATCH|10=095|8=FIXT.1.1|9=62|35=0|34=258|49=CLIENT1|52=20221130-22:59:52.037|56=ORDERMATCH|10=103|8=FIXT.1.1|9=62|35=0|34=259|49=CLIENT1|52=20221130-23:00:22.065|56=ORDERMATCH|10=089|8=FIXT.1.1|9=62|35=0|34=260|49=CLIENT1|52=20221130-23:00:52.117|56=ORDERMATCH|10=082|8=FIXT.1.1|9=62|35=0|34=261|49=CLIENT1|52=20221130-23:01:22.136|56=ORDERMATCH|10=082|8=FIXT.1.1|9=62|35=0|34=262|49=CLIENT1|52=20221130-23:01:52.156|56=ORDERMATCH|10=088|8=FIXT.1.1|9=62|35=0|34=263|49=CLIENT1|52=20221130-23:02:22.182|56=ORDERMATCH|10=086|8=FIXT.1.1|9=62|35=0|34=264|49=CLIENT1|52=20221130-23:02:52.205|56=ORDERMATCH|10=086|8=FIXT.1.1|9=62|35=0|34=265|49=CLIENT1|52=20221130-23:03:22.223|56=ORDERMATCH|10=085|8=FIXT.1.1|9=62|35=0|34=266|49=CLIENT1|52=20221130-23:03:52.278|56=ORDERMATCH|10=099|8=FIXT.1.1|9=62|35=0|34=267|49=CLIENT1|52=20221130-23:04:22.303|56=ORDERMATCH|10=087|8=FIXT.1.1|9=62|35=0|34=268|49=CLIENT1|52=20221130-23:04:52.329|56=ORDERMATCH|10=099|8=FIXT.1.1|9=62|35=0|34=269|49=CLIENT1|52=20221130-23:05:22.354|56=ORDERMATCH|10=096|8=FIXT.1.1|9=62|35=0|34=270|49=CLIENT1|52=20221130-23:05:52.381|56=ORDERMATCH|10=091|8=FIXT.1.1|9=62|35=0|34=271|49=CLIENT1|52=20221130-23:06:22.405|56=ORDERMATCH|10=087|8=FIXT.1.1|9=62|35=0|34=272|49=CLIENT1|52=20221130-23:06:52.481|56=ORDERMATCH|10=095|8=FIXT.1.1|9=62|35=0|34=273|49=CLIENT1|52=20221130-23:07:22.506|56=ORDERMATCH|10=092|8=FIXT.1.1|9=62|35=0|34=274|49=CLIENT1|52=20221130-23:07:52.533|56=ORDERMATCH|10=096|8=FIXT.1.1|9=62|35=0|34=275|49=CLIENT1|52=20221130-23:08:22.554|56=ORDERMATCH|10=098|8=FIXT.1.1|9=62|35=0|34=276|49=CLIENT1|52=20221130-23:08:52.579|56=ORDERMATCH|10=109|8=FIXT.1.1|9=62|35=0|34=277|49=CLIENT1|52=20221130-23:09:22.601|56=ORDERMATCH|10=094|8=FIXT.1.1|9=62|35=0|34=278|49=CLIENT1|52=20221130-23:09:52.621|56=ORDERMATCH|10=100|8=FIXT.1.1|9=62|35=0|34=279|49=CLIENT1|52=20221130-23:10:22.648|56=ORDERMATCH|10=099|8=FIXT.1.1|9=62|35=0|34=280|49=CLIENT1|52=20221130-23:10:52.672|56=ORDERMATCH|10=091|8=FIXT.1.1|9=62|35=0|34=281|49=CLIENT1|52=20221130-23:11:22.702|56=ORDERMATCH|10=084|8=FIXT.1.1|9=62|35=0|34=282|49=CLIENT1|52=20221130-23:11:52.728|56=ORDERMATCH|10=096|8=FIXT.1.1|9=62|35=0|34=283|49=CLIENT1|52=20221130-23:12:22.749|56=ORDERMATCH|10=098|8=FIXT.1.1|9=62|35=0|34=284|49=CLIENT1|52=20221130-23:12:52.827|56=ORDERMATCH|10=099|8=FIXT.1.1|9=62|35=0|34=285|49=CLIENT1|52=20221130-23:13:22.851|56=ORDERMATCH|10=095|8=FIXT.1.1|9=62|35=0|34=286|49=CLIENT1|52=20221130-23:13:52.863|56=ORDERMATCH|10=102|8=FIXT.1.1|9=62|35=0|34=287|49=CLIENT1|52=20221130-23:14:22.880|56=ORDERMATCH|10=100|8=FIXT.1.1|9=62|35=0|34=288|49=CLIENT1|52=20221130-23:14:52.903|56=ORDERMATCH|10=100|8=FIXT.1.1|9=62|35=0|34=289|49=CLIENT1|52=20221130-23:15:22.003|56=ORDERMATCH|10=090|8=FIXT.1.1|9=62|35=0|34=290|49=CLIENT1|52=20221130-23:15:52.024|56=ORDERMATCH|10=088|8=FIXT.1.1|9=62|35=0|34=291|49=CLIENT1|52=20221130-23:16:22.061|56=ORDERMATCH|10=088|8=FIXT.1.1|9=62|35=0|34=292|49=CLIENT1|52=20221130-23:16:52.005|56=ORDERMATCH|10=090|8=FIXT.1.1|9=62|35=0|34=293|49=CLIENT1|52=20221130-23:17:22.020|56=ORDERMATCH|10=086|8=FIXT.1.1|9=62|35=0|34=294|49=CLIENT1|52=20221130-23:17:52.042|56=ORDERMATCH|10=094|8=FIXT.1.1|9=62|35=0|34=295|49=CLIENT1|52=20221130-23:18:22.063|56=ORDERMATCH|10=096|8=FIXT.1.1|9=62|35=0|34=296|49=CLIENT1|52=20221130-23:18:52.090|56=ORDERMATCH|10=100|8=FIXT.1.1|9=62|35=0|34=297|49=CLIENT1|52=20221130-23:19:22.111|56=ORDERMATCH|10=093|8=FIXT.1.1|9=62|35=0|34=298|49=CLIENT1|52=20221130-23:19:52.126|56=ORDERMATCH|10=103|8=FIXT.1.1|9=62|35=0|34=299|49=CLIENT1|52=20221130-23:20:22.139|56=ORDERMATCH|10=097|8=FIXT.1.1|9=62|35=0|34=300|49=CLIENT1|52=20221130-23:20:52.154|56=ORDERMATCH|10=080|8=FIXT.1.1|9=62|35=0|34=301|49=CLIENT1|52=20221130-23:21:22.167|56=ORDERMATCH|10=083|8=FIXT.1.1|9=62|35=0|34=302|49=CLIENT1|52=20221130-23:21:52.183|56=ORDERMATCH|10=085|