8=FIXT.1.1|9=79|35=A|34=1|49=CLIENT1|52=20221129-18:37:24.636|56=ORDERMATCH|98=0|108=30|1137=7|10=121|8=FIXT.1.1|9=79|35=A|34=2|49=CLIENT1|52=20221129-18:38:42.075|56=ORDERMATCH|98=0|108=30|1137=7|10=120|