8=FIXT.1.1|9=79|35=A|34=1|49=ORDERMATCH|52=20221130-20:51:40.477|56=CLIENT1|98=0|108=30|1137=7|10=103|8=FIXT.1.1|9=60|35=0|34=2|49=ORDERMATCH|52=20221130-20:52:10.486|56=CLIENT1|10=241|8=FIXT.1.1|9=144|35=8|34=3|49=ORDERMATCH|52=20221130-20:52:22.598|56=CLIENT1|1128=7|11=1|14=0|17=1|37=1|39=8|54=1|58=Incorrect data format for value|150=8|151=0|10=239|8=FIXT.1.1|9=60|35=0|34=4|49=ORDERMATCH|52=20221130-20:52:52.509|56=CLIENT1|10=245|8=FIXT.1.1|9=60|35=0|34=5|49=ORDERMATCH|52=20221130-20:53:22.528|56=CLIENT1|10=245|8=FIXT.1.1|9=60|35=0|34=6|49=ORDERMATCH|52=20221130-20:53:52.542|56=CLIENT1|10=245|8=FIXT.1.1|9=60|35=0|34=7|49=ORDERMATCH|52=20221130-20:54:22.558|56=CLIENT1|10=251|8=FIXT.1.1|9=60|35=0|34=8|49=ORDERMATCH|52=20221130-20:54:52.571|56=CLIENT1|10=250|8=FIXT.1.1|9=60|35=0|34=9|49=ORDERMATCH|52=20221130-20:55:22.585|56=CLIENT1|10=254|8=FIXT.1.1|9=61|35=0|34=10|49=ORDERMATCH|52=20221130-20:55:52.601|56=CLIENT1|10=031|8=FIXT.1.1|9=61|35=0|34=11|49=ORDERMATCH|52=20221130-20:56:22.616|56=CLIENT1|10=036|8=FIXT.1.1|9=61|35=0|34=12|49=ORDERMATCH|52=20221130-20:56:52.630|56=CLIENT1|10=036|8=FIXT.1.1|9=61|35=0|34=13|49=ORDERMATCH|52=20221130-20:57:22.644|56=CLIENT1|10=040|8=FIXT.1.1|9=61|35=0|34=14|49=ORDERMATCH|52=20221130-20:57:52.012|56=CLIENT1|10=033|8=FIXT.1.1|9=61|35=0|34=15|49=ORDERMATCH|52=20221130-20:58:22.026|56=CLIENT1|10=037|8=FIXT.1.1|9=61|35=0|34=16|49=ORDERMATCH|52=20221130-20:58:52.041|56=CLIENT1|10=038|8=FIXT.1.1|9=61|35=0|34=17|49=ORDERMATCH|52=20221130-20:59:22.057|56=CLIENT1|10=044|8=FIXT.1.1|9=61|35=0|34=18|49=ORDERMATCH|52=20221130-20:59:52.074|56=CLIENT1|10=047|8=FIXT.1.1|9=61|35=0|34=19|49=ORDERMATCH|52=20221130-21:00:22.088|56=CLIENT1|10=037|8=FIXT.1.1|9=61|35=0|34=20|49=ORDERMATCH|52=20221130-21:00:52.104|56=CLIENT1|10=021|8=FIXT.1.1|9=61|35=0|34=21|49=ORDERMATCH|52=20221130-21:01:22.118|56=CLIENT1|10=025|8=FIXT.1.1|9=61|35=0|34=22|49=ORDERMATCH|52=20221130-21:01:52.146|56=CLIENT1|10=030|8=FIXT.1.1|9=61|35=0|34=23|49=ORDERMATCH|52=20221130-21:02:22.164|56=CLIENT1|10=029|8=FIXT.1.1|9=61|35=0|34=24|49=ORDERMATCH|52=20221130-21:02:52.181|56=CLIENT1|10=032|8=FIXT.1.1|9=61|35=0|34=25|49=ORDERMATCH|52=20221130-21:03:22.197|56=CLIENT1|10=038|8=FIXT.1.1|9=61|35=0|34=26|49=ORDERMATCH|52=20221130-21:03:52.215|56=CLIENT1|10=033|8=FIXT.1.1|9=61|35=0|34=27|49=ORDERMATCH|52=20221130-21:04:22.233|56=CLIENT1|10=032|8=FIXT.1.1|9=61|35=0|34=28|49=ORDERMATCH|52=20221130-21:04:52.251|56=CLIENT1|10=036|8=FIXT.1.1|9=61|35=0|34=29|49=ORDERMATCH|52=20221130-21:05:22.266|56=CLIENT1|10=041|8=FIXT.1.1|9=61|35=0|34=30|49=ORDERMATCH|52=20221130-21:05:52.284|56=CLIENT1|10=036|8=FIXT.1.1|9=61|35=0|34=31|49=ORDERMATCH|52=20221130-21:06:22.301|56=CLIENT1|10=025|8=FIXT.1.1|9=61|35=0|34=32|49=ORDERMATCH|52=20221130-21:06:52.330|56=CLIENT1|10=031|8=FIXT.1.1|9=61|35=0|34=33|49=ORDERMATCH|52=20221130-21:07:22.347|56=CLIENT1|10=038|8=FIXT.1.1|9=61|35=0|34=34|49=ORDERMATCH|52=20221130-21:07:52.364|56=CLIENT1|10=041|8=FIXT.1.1|9=61|35=0|34=35|49=ORDERMATCH|52=20221130-21:08:22.384|56=CLIENT1|10=042|8=FIXT.1.1|9=61|35=0|34=36|49=ORDERMATCH|52=20221130-21:08:52.401|56=CLIENT1|10=036|8=FIXT.1.1|9=61|35=0|34=37|49=ORDERMATCH|52=20221130-21:09:22.417|56=CLIENT1|10=042|8=FIXT.1.1|9=61|35=0|34=38|49=ORDERMATCH|52=20221130-21:09:52.026|56=CLIENT1|10=042|8=FIXT.1.1|9=61|35=0|34=39|49=ORDERMATCH|52=20221130-21:10:22.040|56=CLIENT1|10=028|8=FIXT.1.1|9=61|35=0|34=40|49=ORDERMATCH|52=20221130-21:10:52.057|56=CLIENT1|10=031|8=FIXT.1.1|9=61|35=0|34=41|49=ORDERMATCH|52=20221130-21:11:22.073|56=CLIENT1|10=028|8=FIXT.1.1|9=61|35=0|34=42|49=ORDERMATCH|52=20221130-21:11:52.098|56=CLIENT1|10=039|8=FIXT.1.1|9=61|35=0|34=43|49=ORDERMATCH|52=20221130-21:12:22.109|56=CLIENT1|10=031|8=FIXT.1.1|9=61|35=0|34=44|49=ORDERMATCH|52=20221130-21:12:52.122|56=CLIENT1|10=030|8=FIXT.1.1|9=61|35=0|34=45|49=ORDERMATCH|52=20221130-21:13:22.140|56=CLIENT1|10=029|8=FIXT.1.1|9=61|35=0|34=46|49=ORDERMATCH|52=20221130-21:13:52.152|56=CLIENT1|10=036|8=FIXT.1.1|9=61|35=0|34=47|49=ORDERMATCH|52=20221130-21:14:22.165|56=CLIENT1|10=039|8=FIXT.1.1|9=61|35=0|34=48|49=ORDERMATCH|52=20221130-21:14:52.179|56=CLIENT1|10=048|8=FIXT.1.1|9=61|35=0|34=49|49=ORDERMATCH|52=20221130-21:15:22.192|56=CLIENT1|10=042|8=FIXT.1.1|9=61|35=0|34=50|49=ORDERMATCH|52=20221130-21:15:52.209|56=CLIENT1|10=036|8=FIXT.1.1|9=61|35=0|34=51|49=ORDERMATCH|52=20221130-21:16:22.224|56=CLIENT1|10=032|8=FIXT.1.1|9=61|35=0|34=52|49=ORDERMATCH|52=20221130-21:16:52.236|56=CLIENT1|10=039|8=FIXT.1.1|9=61|35=0|34=53|49=ORDERMATCH|52=20221130-21:17:22.252|56=CLIENT1|10=036|8=FIXT.1.1|9=61|35=0|34=54|49=ORDERMATCH|52=20221130-21:17:52.265|56=CLIENT1|10=044|8=FIXT.1.1|9=61|35=0|34=55|49=ORDERMATCH|52=20221130-21:18:22.277|56=CLIENT1|10=046|8=FIXT.1.1|9=61|35=0|34=56|49=ORDERMATCH|52=20221130-21:18:52.290|56=CLIENT1|10=045|8=FIXT.1.1|9=61|35=0|34=57|49=ORDERMATCH|52=20221130-21:19:22.303|56=CLIENT1|10=039|8=FIXT.1.1|9=61|35=0|34=58|49=ORDERMATCH|52=20221130-21:19:52.320|56=CLIENT1|10=042|8=FIXT.1.1|9=61|35=0|34=59|49=ORDERMATCH|52=20221130-21:20:22.334|56=CLIENT1|10=037|8=FIXT.1.1|9=61|35=0|34=60|49=ORDERMATCH|52=20221130-21:20:52.349|56=CLIENT1|10=038|8=FIXT.1.1|9=61|35=0|34=61|49=ORDERMATCH|52=20221130-21:21:22.366|56=CLIENT1|10=036|8=FIXT.1.1|9=61|35=0|34=62|49=ORDERMATCH|52=20221130-21:21:52.016|56=CLIENT1|10=032|8=FIXT.1.1|9=61|35=0|34=63|49=ORDERMATCH|52=20221130-21:22:22.034|56=CLIENT1|10=031|8=FIXT.1.1|9=61|35=0|34=64|49=ORDERMATCH|52=20221130-21:22:52.054|56=CLIENT1|10=037|8=FIXT.1.1|9=61|35=0|34=65|49=ORDERMATCH|52=20221130-21:23:22.070|56=CLIENT1|10=034|8=FIXT.1.1|9=61|35=0|34=66|49=ORDERMATCH|52=20221130-21:23:52.103|56=CLIENT1|10=035|8=FIXT.1.1|9=61|35=0|34=67|49=ORDERMATCH|52=20221130-21:24:22.121|56=CLIENT1|10=034|8=FIXT.1.1|9=61|35=0|34=68|49=ORDERMATCH|52=20221130-21:24:52.171|56=CLIENT1|10=043|8=FIXT.1.1|9=61|35=0|34=69|49=ORDERMATCH|52=20221130-21:25:22.193|56=CLIENT1|10=046|8=FIXT.1.1|9=61|35=0|34=70|49=ORDERMATCH|52=20221130-21:25:52.213|56=CLIENT1|10=034|8=FIXT.1.1|9=61|35=0|34=71|49=ORDERMATCH|52=20221130-21:26:22.231|56=CLIENT1|10=033|8=FIXT.1.1|9=61|35=0|34=72|49=ORDERMATCH|52=20221130-21:26:52.247|56=CLIENT1|10=044|8=FIXT.1.1|9=61|35=0|34=73|49=ORDERMATCH|52=20221130-21:27:22.262|56=CLIENT1|10=040|8=FIXT.1.1|9=61|35=0|34=74|49=ORDERMATCH|52=20221130-21:27:52.284|56=CLIENT1|10=048|8=FIXT.1.1|9=61|35=0|34=75|49=ORDERMATCH|52=20221130-21:28:22.300|56=CLIENT1|10=036|8=FIXT.1.1|9=61|35=0|34=76|49=ORDERMATCH|52=20221130-21:28:52.315|56=CLIENT1|10=046|8=FIXT.1.1|9=61|35=0|34=77|49=ORDERMATCH|52=20221130-21:29:22.332|56=CLIENT1|10=044|8=FIXT.1.1|9=61|35=0|34=78|49=ORDERMATCH|52=20221130-21:29:52.350|56=CLIENT1|10=048|8=FIXT.1.1|9=61|35=0|34=79|49=ORDERMATCH|52=20221130-21:30:22.370|56=CLIENT1|10=040|8=FIXT.1.1|9=61|35=0|34=80|49=ORDERMATCH|52=20221130-21:30:52.409|56=CLIENT1|10=038|8=FIXT.1.1|9=61|35=0|34=81|49=ORDERMATCH|52=20221130-21:31:22.426|56=CLIENT1|10=036|8=FIXT.1.1|9=61|35=0|34=82|49=ORDERMATCH|52=20221130-21:31:52.444|56=CLIENT1|10=040|8=FIXT.1.1|9=61|35=0|34=83|49=ORDERMATCH|52=20221130-21:32:22.461|56=CLIENT1|10=038|8=FIXT.1.1|9=61|35=0|34=84|49=ORDERMATCH|52=20221130-21:32:52.476|56=CLIENT1|10=048|8=FIXT.1.1|9=61|35=0|34=85|49=ORDERMATCH|52=20221130-21:33:22.494|56=CLIENT1|10=047|8=FIXT.1.1|9=61|35=0|34=86|49=ORDERMATCH|52=20221130-21:33:52.556|56=CLIENT1|10=050|8=FIXT.1.1|9=61|35=0|34=87|49=ORDERMATCH|52=20221130-21:34:22.584|56=CLIENT1|10=050|8=FIXT.1.1|9=61|35=0|34=88|49=ORDERMATCH|52=20221130-21:34:52.600|56=CLIENT1|10=043|8=FIXT.1.1|9=61|35=0|34=89|49=ORDERMATCH|52=20221130-21:35:22.618|56=CLIENT1|10=051|8=FIXT.1.1|9=61|35=0|34=90|49=ORDERMATCH|52=20221130-21:35:52.633|56=CLIENT1|10=043|8=FIXT.1.1|9=61|35=0|34=91|49=ORDERMATCH|52=20221130-21:36:22.648|56=CLIENT1|10=048|8=FIXT.1.1|9=61|35=0|34=92|49=ORDERMATCH|52=20221130-21:36:52.679|56=CLIENT1|10=056|8=FIXT.1.1|9=61|35=0|34=93|49=ORDERMATCH|52=20221130-21:37:22.697|56=CLIENT1|10=055|8=FIXT.1.1|9=61|35=0|34=94|49=ORDERMATCH|52=20221130-21:37:52.715|56=CLIENT1|10=050|8=FIXT.1.1|9=61|35=0|34=95|49=ORDERMATCH|52=20221130-21:38:22.736|56=CLIENT1|10=052|8=FIXT.1.1|9=61|35=0|34=96|49=ORDERMATCH|52=20221130-21:38:52.753|56=CLIENT1|10=055|8=FIXT.1.1|9=61|35=0|34=97|49=ORDERMATCH|52=20221130-21:39:22.771|56=CLIENT1|10=054|8=FIXT.1.1|9=61|35=0|34=98|49=ORDERMATCH|52=20221130-21:39:52.001|56=CLIENT1|10=044|8=FIXT.1.1|9=61|35=0|34=99|49=ORDERMATCH|52=20221130-21:40:22.016|56=CLIENT1|10=040|8=FIXT.1.1|9=62|35=0|34=100|49=ORDERMATCH|52=20221130-21:40:52.033|56=CLIENT1|10=074|8=FIXT.1.1|9=62|35=0|34=101|49=ORDERMATCH|52=20221130-21:41:22.046|56=CLIENT1|10=077|8=FIXT.1.1|9=62|35=0|34=102|49=ORDERMATCH|52=20221130-21:41:52.065|56=CLIENT1|10=082|8=FIXT.1.1|9=62|35=0|34=103|49=ORDERMATCH|52=20221130-21:42:22.083|56=CLIENT1|10=081|8=FIXT.1.1|9=62|35=0|34=104|49=ORDERMATCH|52=20221130-21:42:52.101|56=CLIENT1|10=076|8=FIXT.1.1|9=62|35=0|34=105|49=ORDERMATCH|52=20221130-21:43:22.118|56=CLIENT1|10=083|8=FIXT.1.1|9=62|35=0|34=106|49=ORDERMATCH|52=20221130-21:43:52.133|56=CLIENT1|10=084|8=FIXT.1.1|9=62|35=0|34=107|49=ORDERMATCH|52=20221130-21:44:22.148|56=CLIENT1|10=089|8=FIXT.1.1|9=62|35=0|34=108|49=ORDERMATCH|52=20221130-21:44:52.163|56=CLIENT1|10=090|8=FIXT.1.1|9=62|35=0|34=109|49=ORDERMATCH|52=20221130-21:45:22.010|56=CLIENT1|10=080|8=FIXT.1.1|9=62|35=0|34=110|49=ORDERMATCH|52=20221130-21:45:52.038|56=CLIENT1|10=085|8=FIXT.1.1|9=62|35=0|34=111|49=ORDERMATCH|52=20221130-21:46:22.057|56=CLIENT1|10=085|8=FIXT.1.1|9=62|35=0|34=112|49=ORDERMATCH|52=20221130-21:46:52.076|56=CLIENT1|10=090|8=FIXT.1.1|9=62|35=0|34=113|49=ORDERMATCH|52=20221130-21:47:22.094|56=CLIENT1|10=089|8=FIXT.1.1|9=62|35=0|34=114|49=ORDERMATCH|52=20221130-21:47:52.111|56=CLIENT1|10=083|8=FIXT.1.1|9=62|35=0|34=115|49=ORDERMATCH|52=20221130-21:48:22.129|56=CLIENT1|10=091|8=FIXT.1.1|9=62|35=0|34=116|49=ORDERMATCH|52=20221130-21:48:52.159|56=CLIENT1|10=098|8=FIXT.1.1|9=62|35=0|34=117|49=ORDERMATCH|52=20221130-21:49:22.174|56=CLIENT1|10=094|8=FIXT.1.1|9=62|35=0|34=118|49=ORDERMATCH|52=20221130-21:49:52.191|56=CLIENT1|10=097|8=FIXT.1.1|9=62|35=0|34=119|49=ORDERMATCH|52=20221130-21:50:22.213|56=CLIENT1|10=082|8=FIXT.1.1|9=62|35=0|34=120|49=ORDERMATCH|52=20221130-21:50:52.233|56=CLIENT1|10=079|8=FIXT.1.1|9=62|35=0|34=121|49=ORDERMATCH|52=20221130-21:51:22.252|56=CLIENT1|10=079|8=FIXT.1.1|9=62|35=0|34=122|49=ORDERMATCH|52=20221130-21:51:52.279|56=CLIENT1|10=092|8=FIXT.1.1|9=62|35=0|34=123|49=ORDERMATCH|52=20221130-21:52:22.294|56=CLIENT1|10=088|8=FIXT.1.1|9=62|35=0|34=124|49=ORDERMATCH|52=20221130-21:52:52.309|56=CLIENT1|10=089|8=FIXT.1.1|9=62|35=0|34=125|49=ORDERMATCH|52=20221130-21:53:22.327|56=CLIENT1|10=088|8=FIXT.1.1|9=62|35=0|34=126|49=ORDERMATCH|52=20221130-21:53:52.345|56=CLIENT1|10=092|8=FIXT.1.1|9=62|35=0|34=127|49=ORDERMATCH|52=20221130-21:54:22.360|56=CLIENT1|10=088|8=FIXT.1.1|9=62|35=0|34=128|49=ORDERMATCH|52=20221130-21:54:52.380|56=CLIENT1|10=094|8=FIXT.1.1|9=62|35=0|34=129|49=ORDERMATCH|52=20221130-21:55:22.394|56=CLIENT1|10=098|8=FIXT.1.1|9=62|35=0|34=130|49=ORDERMATCH|52=20221130-21:55:52.411|56=CLIENT1|10=083|8=FIXT.1.1|9=62|35=0|34=131|49=ORDERMATCH|52=20221130-21:56:22.426|56=CLIENT1|10=088|8=FIXT.1.1|9=62|35=0|34=132|49=ORDERMATCH|52=20221130-21:56:52.444|56=CLIENT1|10=092|8=FIXT.1.1|9=62|35=0|34=133|49=ORDERMATCH|52=20221130-21:57:22.459|56=CLIENT1|10=097|8=FIXT.1.1|9=62|35=0|34=134|49=ORDERMATCH|52=20221130-21:57:52.478|56=CLIENT1|10=102|8=FIXT.1.1|9=62|35=0|34=135|49=ORDERMATCH|52=20221130-21:58:22.496|56=CLIENT1|10=101|8=FIXT.1.1|9=62|35=0|34=136|49=ORDERMATCH|52=20221130-21:58:52.511|56=CLIENT1|10=093|8=FIXT.1.1|9=62|35=0|34=137|49=ORDERMATCH|52=20221130-21:59:22.662|56=CLIENT1|10=099|8=FIXT.1.1|9=62|35=0|34=138|49=ORDERMATCH|52=20221130-21:59:52.677|56=CLIENT1|10=109|8=FIXT.1.1|9=62|35=0|34=139|49=ORDERMATCH|52=20221130-22:00:22.707|56=CLIENT1|10=088|8=FIXT.1.1|9=62|35=0|34=140|49=ORDERMATCH|52=20221130-22:00:52.723|56=CLIENT1|10=081|8=FIXT.1.1|9=62|35=0|34=141|49=ORDERMATCH|52=20221130-22:01:22.738|56=CLIENT1|10=086|8=FIXT.1.1|9=62|35=0|34=142|49=ORDERMATCH|52=20221130-22:01:52.750|56=CLIENT1|10=084|8=FIXT.1.1|9=62|35=0|34=143|49=ORDERMATCH|52=20221130-22:02:22.765|56=CLIENT1|10=089|8=FIXT.1.1|9=62|35=0|34=144|49=ORDERMATCH|52=20221130-22:02:52.782|56=CLIENT1|10=092|8=FIXT.1.1|9=62|35=0|34=145|49=ORDERMATCH|52=20221130-22:03:22.797|56=CLIENT1|10=097|8=FIXT.1.1|9=62|35=0|34=146|49=ORDERMATCH|52=20221130-22:03:52.816|56=CLIENT1|10=093|8=FIXT.1.1|9=62|35=0|34=147|49=ORDERMATCH|52=20221130-22:04:22.837|56=CLIENT1|10=095|8=FIXT.1.1|9=62|35=0|34=148|49=ORDERMATCH|52=20221130-22:04:52.851|56=CLIENT1|10=095|8=FIXT.1.1|9=62|35=0|34=149|49=ORDERMATCH|52=20221130-22:05:22.865|56=CLIENT1|10=099|8=FIXT.1.1|9=62|35=0|34=150|49=ORDERMATCH|52=20221130-22:05:52.881|56=CLIENT1|10=092|8=FIXT.1.1|9=62|35=0|34=151|49=ORDERMATCH|52=20221130-22:06:22.897|56=CLIENT1|10=098|8=FIXT.1.1|9=62|35=0|34=152|49=ORDERMATCH|52=20221130-22:06:52.913|56=CLIENT1|10=091|8=FIXT.1.1|9=62|35=0|34=153|49=ORDERMATCH|52=20221130-22:07:22.929|56=CLIENT1|10=097|8=FIXT.1.1|9=62|35=0|34=154|49=ORDERMATCH|52=20221130-22:07:52.944|56=CLIENT1|10=098|8=FIXT.1.1|9=62|35=0|34=155|49=ORDERMATCH|52=20221130-22:08:22.961|56=CLIENT1|10=096|8=FIXT.1.1|9=62|35=0|34=156|49=ORDERMATCH|52=20221130-22:08:52.978|56=CLIENT1|10=108|8=FIXT.1.1|9=62|35=0|34=157|49=ORDERMATCH|52=20221130-22:09:22.009|56=CLIENT1|10=092|8=FIXT.1.1|9=62|35=0|34=158|49=ORDERMATCH|52=20221130-22:09:52.010|56=CLIENT1|10=088|8=FIXT.1.1|9=62|35=0|34=159|49=ORDERMATCH|52=20221130-22:10:22.032|56=CLIENT1|10=082|8=FIXT.1.1|9=62|35=0|34=160|49=ORDERMATCH|52=20221130-22:10:52.047|56=CLIENT1|10=083|8=FIXT.1.1|9=62|35=0|34=161|49=ORDERMATCH|52=20221130-22:11:22.108|56=CLIENT1|10=080|8=FIXT.1.1|9=62|35=0|34=162|49=ORDERMATCH|52=20221130-22:11:52.190|56=CLIENT1|10=085|8=FIXT.1.1|9=62|35=0|34=163|49=ORDERMATCH|52=20221130-22:12:22.203|56=CLIENT1|10=079|8=FIXT.1.1|9=62|35=0|34=164|49=ORDERMATCH|52=20221130-22:12:52.216|56=CLIENT1|10=087|8=FIXT.1.1|9=62|35=0|34=165|49=ORDERMATCH|52=20221130-22:13:22.228|56=CLIENT1|10=089|8=FIXT.1.1|9=62|35=0|34=166|49=ORDERMATCH|52=20221130-22:13:52.240|56=CLIENT1|10=087|8=FIXT.1.1|9=62|35=0|34=167|49=ORDERMATCH|52=20221130-22:14:22.255|56=CLIENT1|10=092|8=FIXT.1.1|9=62|35=0|34=168|49=ORDERMATCH|52=20221130-22:14:52.271|56=CLIENT1|10=094|8=FIXT.1.1|9=62|35=0|34=169|49=ORDERMATCH|52=20221130-22:15:22.282|56=CLIENT1|10=095|8=FIXT.1.1|9=62|35=0|34=170|49=ORDERMATCH|52=20221130-22:15:52.298|56=CLIENT1|10=097|8=FIXT.1.1|9=62|35=0|34=171|49=ORDERMATCH|52=20221130-22:16:22.312|56=CLIENT1|10=083|8=FIXT.1.1|9=62|35=0|34=172|49=ORDERMATCH|52=20221130-22:16:52.327|56=CLIENT1|10=093|8=FIXT.1.1|9=62|35=0|34=173|49=ORDERMATCH|52=20221130-22:17:22.344|56=CLIENT1|10=091|8=FIXT.1.1|9=62|35=0|34=174|49=ORDERMATCH|52=20221130-22:17:52.364|56=CLIENT1|10=097|8=FIXT.1.1|9=62|35=0|34=175|49=ORDERMATCH|52=20221130-22:18:22.381|56=CLIENT1|10=095|8=FIXT.1.1|9=62|35=0|34=176|49=ORDERMATCH|52=20221130-22:18:52.394|56=CLIENT1|10=103|8=FIXT.1.1|9=62|35=0|34=177|49=ORDERMATCH|52=20221130-22:19:22.405|56=CLIENT1|10=095|8=FIXT.1.1|9=62|35=0|34=178|49=ORDERMATCH|52=20221130-22:19:52.421|56=CLIENT1|10=097|8=FIXT.1.1|9=62|35=0|34=179|49=ORDERMATCH|52=20221130-22:20:22.434|56=CLIENT1|10=091|8=FIXT.1.1|9=62|35=0|34=180|49=ORDERMATCH|52=20221130-22:20:52.445|56=CLIENT1|10=088|8=FIXT.1.1|9=62|35=0|34=181|49=ORDERMATCH|52=20221130-22:21:22.459|56=CLIENT1|10=092|8=FIXT.1.1|9=62|35=0|34=182|49=ORDERMATCH|52=20221130-22:21:52.480|56=CLIENT1|10=090|8=FIXT.1.1|9=62|35=0|34=183|49=ORDERMATCH|52=20221130-22:22:22.492|56=CLIENT1|10=092|8=FIXT.1.1|9=62|35=0|34=184|49=ORDERMATCH|52=20221130-22:22:52.505|56=CLIENT1|10=091|8=FIXT.1.1|9=62|35=0|34=185|49=ORDERMATCH|52=20221130-22:23:22.520|56=CLIENT1|10=087|8=FIXT.1.1|9=62|35=0|34=186|49=ORDERMATCH|52=20221130-22:23:52.531|56=CLIENT1|10=093|8=FIXT.1.1|9=62|35=0|34=187|49=ORDERMATCH|52=20221130-22:24:22.546|56=CLIENT1|10=098|8=FIXT.1.1|9=62|35=0|34=188|49=ORDERMATCH|52=20221130-22:24:52.602|56=CLIENT1|10=095|8=FIXT.1.1|9=62|35=0|34=189|49=ORDERMATCH|52=20221130-22:25:22.615|56=CLIENT1|10=098|8=FIXT.1.1|9=62|35=0|34=190|49=ORDERMATCH|52=20221130-22:25:52.630|56=CLIENT1|10=090|8=FIXT.1.1|9=62|35=0|34=191|49=ORDERMATCH|52=20221130-22:26:22.646|56=CLIENT1|10=096|8=FIXT.1.1|9=62|35=0|34=192|49=ORDERMATCH|52=20221130-22:26:52.661|56=CLIENT1|10=097|8=FIXT.1.1|9=62|35=0|34=193|49=ORDERMATCH|52=20221130-22:27:22.681|56=CLIENT1|10=098|8=FIXT.1.1|9=62|35=0|34=194|49=ORDERMATCH|52=20221130-22:27:52.715|56=CLIENT1|10=100|8=FIXT.1.1|9=62|35=0|34=195|49=ORDERMATCH|52=20221130-22:28:22.728|56=CLIENT1|10=103|8=FIXT.1.1|9=62|35=0|34=196|49=ORDERMATCH|52=20221130-22:28:52.743|56=CLIENT1|10=104|8=FIXT.1.1|9=62|35=0|34=197|49=ORDERMATCH|52=20221130-22:29:22.756|56=CLIENT1|10=107|8=FIXT.1.1|9=62|35=0|34=198|49=ORDERMATCH|52=20221130-22:29:52.833|56=CLIENT1|10=107|8=FIXT.1.1|9=62|35=0|34=199|49=ORDERMATCH|52=20221130-22:30:22.850|56=CLIENT1|10=096|8=FIXT.1.1|9=62|35=0|34=200|49=ORDERMATCH|52=20221130-22:30:52.868|56=CLIENT1|10=091|8=FIXT.1.1|9=62|35=0|34=201|49=ORDERMATCH|52=20221130-22:31:22.881|56=CLIENT1|10=085|8=FIXT.1.1|9=62|35=0|34=202|49=ORDERMATCH|52=20221130-22:31:52.897|56=CLIENT1|10=096|8=FIXT.1.1|9=62|35=0|34=203|49=ORDERMATCH|52=20221130-22:32:22.914|56=CLIENT1|10=085|8=FIXT.1.1|9=62|35=0|34=204|49=ORDERMATCH|52=20221130-22:32:52.927|56=CLIENT1|10=093|8=FIXT.1.1|9=62|35=0|34=205|49=ORDERMATCH|52=20221130-22:33:22.942|56=CLIENT1|10=089|8=FIXT.1.1|9=62|35=0|34=206|49=ORDERMATCH|52=20221130-22:33:52.988|56=CLIENT1|10=103|8=FIXT.1.1|9=62|35=0|34=207|49=ORDERMATCH|52=20221130-22:34:22.005|56=CLIENT1|10=082|8=FIXT.1.1|9=62|35=0|34=208|49=ORDERMATCH|52=20221130-22:34:52.020|56=CLIENT1|10=083|8=FIXT.1.1|9=62|35=0|34=209|49=ORDERMATCH|52=20221130-22:35:22.038|56=CLIENT1|10=091|8=FIXT.1.1|9=62|35=0|34=210|49=ORDERMATCH|52=20221130-22:35:52.052|56=CLIENT1|10=082|8=FIXT.1.1|9=62|35=0|34=211|49=ORDERMATCH|52=20221130-22:36:22.066|56=CLIENT1|10=086|8=FIXT.1.1|9=62|35=0|34=212|49=ORDERMATCH|52=20221130-22:36:52.083|56=CLIENT1|10=089|8=FIXT.1.1|9=62|35=0|34=213|49=ORDERMATCH|52=20221130-22:37:22.098|56=CLIENT1|10=094|8=FIXT.1.1|9=62|35=0|34=214|49=ORDERMATCH|52=20221130-22:37:52.112|56=CLIENT1|10=085|8=FIXT.1.1|9=62|35=0|34=215|49=ORDERMATCH|52=20221130-22:38:22.124|56=CLIENT1|10=087|8=FIXT.1.1|9=62|35=0|34=216|49=ORDERMATCH|52=20221130-22:38:52.137|56=CLIENT1|10=095|8=FIXT.1.1|9=62|35=0|34=217|49=ORDERMATCH|52=20221130-22:39:22.150|56=CLIENT1|10=089|8=FIXT.1.1|9=62|35=0|34=218|49=ORDERMATCH|52=20221130-22:39:52.186|56=CLIENT1|10=102|8=FIXT.1.1|9=62|35=0|34=219|49=ORDERMATCH|52=20221130-22:40:22.201|56=CLIENT1|10=080|8=FIXT.1.1|9=62|35=0|34=220|49=ORDERMATCH|52=20221130-22:40:52.213|56=CLIENT1|10=078|8=FIXT.1.1|9=62|35=0|34=221|49=ORDERMATCH|52=20221130-22:41:22.226|56=CLIENT1|10=081|8=FIXT.1.1|9=62|35=0|34=222|49=ORDERMATCH|52=20221130-22:41:52.240|56=CLIENT1|10=081|8=FIXT.1.1|9=62|35=0|34=223|49=ORDERMATCH|52=20221130-22:42:22.253|56=CLIENT1|10=084|8=FIXT.1.1|9=62|35=0|34=224|49=ORDERMATCH|52=20221130-22:42:52.339|56=CLIENT1|10=093|8=FIXT.1.1|9=62|35=0|34=225|49=ORDERMATCH|52=20221130-22:43:22.354|56=CLIENT1|10=089|8=FIXT.1.1|9=62|35=0|34=226|49=ORDERMATCH|52=20221130-22:43:52.367|56=CLIENT1|10=097|8=FIXT.1.1|9=62|35=0|34=227|49=ORDERMATCH|52=20221130-22:44:22.384|56=CLIENT1|10=095|8=FIXT.1.1|9=62|35=0|34=228|49=ORDERMATCH|52=20221130-22:44:52.399|56=CLIENT1|10=105|8=FIXT.1.1|9=62|35=0|34=229|49=ORDERMATCH|52=20221130-22:45:22.416|56=CLIENT1|10=094|8=FIXT.1.1|9=62|35=0|34=230|49=ORDERMATCH|52=20221130-22:45:52.452|56=CLIENT1|10=089|8=FIXT.1.1|9=62|35=0|34=231|49=ORDERMATCH|52=20221130-22:46:22.466|56=CLIENT1|10=093|8=FIXT.1.1|9=62|35=0|34=232|49=ORDERMATCH|52=20221130-22:46:52.510|56=CLIENT1|10=087|8=FIXT.1.1|9=62|35=0|34=233|49=ORDERMATCH|52=20221130-22:47:22.529|56=CLIENT1|10=096|8=FIXT.1.1|9=62|35=0|34=234|49=ORDERMATCH|52=20221130-22:47:52.547|56=CLIENT1|10=100|8=FIXT.1.1|9=62|35=0|34=235|49=ORDERMATCH|52=20221130-22:48:22.560|56=CLIENT1|10=094|8=FIXT.1.1|9=62|35=0|34=236|49=ORDERMATCH|52=20221130-22:48:52.571|56=CLIENT1|10=100|8=FIXT.1.1|9=62|35=0|34=237|49=ORDERMATCH|52=20221130-22:49:22.586|56=CLIENT1|10=105|8=FIXT.1.1|9=62|35=0|34=238|49=ORDERMATCH|52=20221130-22:49:52.604|56=CLIENT1|10=100|8=FIXT.1.1|9=62|35=0|34=239|49=ORDERMATCH|52=20221130-22:50:22.615|56=CLIENT1|10=092|8=FIXT.1.1|9=62|35=0|34=240|49=ORDERMATCH|52=20221130-22:50:52.626|56=CLIENT1|10=089|8=FIXT.1.1|9=62|35=0|34=241|49=ORDERMATCH|52=20221130-22:51:22.636|56=CLIENT1|10=089|8=FIXT.1.1|9=62|35=0|34=242|49=ORDERMATCH|52=20221130-22:51:52.702|56=CLIENT1|10=087|8=FIXT.1.1|9=62|35=0|34=243|49=ORDERMATCH|52=20221130-22:52:22.714|56=CLIENT1|10=089|8=FIXT.1.1|9=62|35=0|34=244|49=ORDERMATCH|52=20221130-22:52:52.723|56=CLIENT1|10=093|8=FIXT.1.1|9=62|35=0|34=245|49=ORDERMATCH|52=20221130-22:53:22.731|56=CLIENT1|10=091|8=FIXT.1.1|9=62|35=0|34=246|49=ORDERMATCH|52=20221130-22:53:52.740|56=CLIENT1|10=095|8=FIXT.1.1|9=62|35=0|34=247|49=ORDERMATCH|52=20221130-22:54:22.751|56=CLIENT1|10=096|8=FIXT.1.1|9=62|35=0|34=248|49=ORDERMATCH|52=20221130-22:54:52.766|56=CLIENT1|10=106|8=FIXT.1.1|9=62|35=0|34=249|49=ORDERMATCH|52=20221130-22:55:22.801|56=CLIENT1|10=095|8=FIXT.1.1|9=62|35=0|34=250|49=ORDERMATCH|52=20221130-22:55:52.821|56=CLIENT1|10=092|8=FIXT.1.1|9=62|35=0|34=251|49=ORDERMATCH|52=20221130-22:56:22.868|56=CLIENT1|10=102|8=FIXT.1.1|9=62|35=0|34=252|49=ORDERMATCH|52=20221130-22:56:52.893|56=CLIENT1|10=104|8=FIXT.1.1|9=62|35=0|34=253|49=ORDERMATCH|52=20221130-22:57:22.919|56=CLIENT1|10=102|8=FIXT.1.1|9=62|35=0|34=254|49=ORDERMATCH|52=20221130-22:57:52.004|56=CLIENT1|10=091|8=FIXT.1.1|9=62|35=0|34=255|49=ORDERMATCH|52=20221130-22:58:22.057|56=CLIENT1|10=098|8=FIXT.1.1|9=62|35=0|34=256|49=ORDERMATCH|52=20221130-22:58:52.077|56=CLIENT1|10=104|8=FIXT.1.1|9=62|35=0|34=257|49=ORDERMATCH|52=20221130-22:59:22.016|56=CLIENT1|10=096|8=FIXT.1.1|9=62|35=0|34=258|49=ORDERMATCH|52=20221130-22:59:52.039|56=CLIENT1|10=105|8=FIXT.1.1|9=62|35=0|34=259|49=ORDERMATCH|52=20221130-23:00:22.067|56=CLIENT1|10=091|8=FIXT.1.1|9=62|35=0|34=260|49=ORDERMATCH|52=20221130-23:00:52.118|56=CLIENT1|10=083|8=FIXT.1.1|9=62|35=0|34=261|49=ORDERMATCH|52=20221130-23:01:22.137|56=CLIENT1|10=083|8=FIXT.1.1|9=62|35=0|34=262|49=ORDERMATCH|52=20221130-23:01:52.158|56=CLIENT1|10=090|8=FIXT.1.1|9=62|35=0|34=263|49=ORDERMATCH|52=20221130-23:02:22.184|56=CLIENT1|10=088|8=FIXT.1.1|9=62|35=0|34=264|49=ORDERMATCH|52=20221130-23:02:52.208|56=CLIENT1|10=089|8=FIXT.1.1|9=62|35=0|34=265|49=ORDERMATCH|52=20221130-23:03:22.224|56=CLIENT1|10=086|8=FIXT.1.1|9=62|35=0|34=266|49=ORDERMATCH|52=20221130-23:03:52.280|56=CLIENT1|10=092|8=FIXT.1.1|9=62|35=0|34=267|49=ORDERMATCH|52=20221130-23:04:22.305|56=CLIENT1|10=089|8=FIXT.1.1|9=62|35=0|34=268|49=ORDERMATCH|52=20221130-23:04:52.330|56=CLIENT1|10=091|8=FIXT.1.1|9=62|35=0|34=269|49=ORDERMATCH|52=20221130-23:05:22.355|56=CLIENT1|10=097|8=FIXT.1.1|9=62|35=0|34=270|49=ORDERMATCH|52=20221130-23:05:52.382|56=CLIENT1|10=092|8=FIXT.1.1|9=62|35=0|34=271|49=ORDERMATCH|52=20221130-23:06:22.406|56=CLIENT1|10=088|8=FIXT.1.1|9=62|35=0|34=272|49=ORDERMATCH|52=20221130-23:06:52.482|56=CLIENT1|10=096|8=FIXT.1.1|9=62|35=0|34=273|49=ORDERMATCH|52=20221130-23:07:22.511|56=CLIENT1|10=088|8=FIXT.1.1|9=62|35=0|34=274|49=ORDERMATCH|52=20221130-23:07:52.534|56=CLIENT1|10=097|8=FIXT.1.1|9=62|35=0|34=275|49=ORDERMATCH|52=20221130-23:08:22.556|56=CLIENT1|10=100|8=FIXT.1.1|9=62|35=0|34=276|49=ORDERMATCH|52=20221130-23:08:52.580|56=CLIENT1|10=101|8=FIXT.1.1|9=62|35=0|34=277|49=ORDERMATCH|52=20221130-23:09:22.602|56=CLIENT1|10=095|8=FIXT.1.1|9=62|35=0|34=278|49=ORDERMATCH|52=20221130-23:09:52.626|56=CLIENT1|10=105|8=FIXT.1.1|9=62|35=0|34=279|49=ORDERMATCH|52=20221130-23:10:22.649|56=CLIENT1|10=100|8=FIXT.1.1|9=62|35=0|34=280|49=ORDERMATCH|52=20221130-23:10:52.677|56=CLIENT1|10=096|8=FIXT.1.1|9=62|35=0|34=281|49=ORDERMATCH|52=20221130-23:11:22.703|56=CLIENT1|10=085|8=FIXT.1.1|9=62|35=0|34=282|49=ORDERMATCH|52=20221130-23:11:52.729|56=CLIENT1|10=097|8=FIXT.1.1|9=62|35=0|34=283|49=ORDERMATCH|52=20221130-23:12:22.750|56=CLIENT1|10=090|8=FIXT.1.1|9=62|35=0|34=284|49=ORDERMATCH|52=20221130-23:12:52.829|56=CLIENT1|10=101|8=FIXT.1.1|9=62|35=0|34=285|49=ORDERMATCH|52=20221130-23:13:22.853|56=CLIENT1|10=097|8=FIXT.1.1|9=62|35=0|34=286|49=ORDERMATCH|52=20221130-23:13:52.864|56=CLIENT1|10=103|8=FIXT.1.1|9=62|35=0|34=287|49=ORDERMATCH|52=20221130-23:14:22.882|56=CLIENT1|10=102|8=FIXT.1.1|9=62|35=0|34=288|49=ORDERMATCH|52=20221130-23:14:52.907|56=CLIENT1|10=104|8=FIXT.1.1|9=62|35=0|34=289|49=ORDERMATCH|52=20221130-23:15:22.001|56=CLIENT1|10=088|8=FIXT.1.1|9=62|35=0|34=290|49=ORDERMATCH|52=20221130-23:15:52.023|56=CLIENT1|10=087|8=FIXT.1.1|9=62|35=0|34=291|49=ORDERMATCH|52=20221130-23:16:22.060|56=CLIENT1|10=087|8=FIXT.1.1|9=62|35=0|34=292|49=ORDERMATCH|52=20221130-23:16:52.007|56=CLIENT1|10=092|8=FIXT.1.1|9=62|35=0|34=293|49=ORDERMATCH|52=20221130-23:17:22.023|56=CLIENT1|10=089|8=FIXT.1.1|9=62|35=0|34=294|49=ORDERMATCH|52=20221130-23:17:52.043|56=CLIENT1|10=095|8=FIXT.1.1|9=62|35=0|34=295|49=ORDERMATCH|52=20221130-23:18:22.064|56=CLIENT1|10=097|8=FIXT.1.1|9=62|35=0|34=296|49=ORDERMATCH|52=20221130-23:18:52.091|56=CLIENT1|10=101|8=FIXT.1.1|9=62|35=0|34=297|49=ORDERMATCH|52=20221130-23:19:22.113|56=CLIENT1|10=095|8=FIXT.1.1|9=62|35=0|34=298|49=ORDERMATCH|52=20221130-23:19:52.127|56=CLIENT1|10=104|8=FIXT.1.1|9=62|35=0|34=299|49=ORDERMATCH|52=20221130-23:20:22.140|56=CLIENT1|10=089|8=FIXT.1.1|9=62|35=0|34=300|49=ORDERMATCH|52=20221130-23:20:52.157|56=CLIENT1|10=083|8=FIXT.1.1|9=62|35=0|34=301|49=ORDERMATCH|52=20221130-23:21:22.169|56=CLIENT1|10=085|8=FIXT.1.1|9=62|35=0|34=302|49=ORDERMATCH|52=20221130-23:21:52.185|56=CLIENT1|10=087|